:0E0000000C9453000C9400000C9400000C941F
:10000E0000000C9400000C9400000C9400000C9462
:10001E0000000C9400000C9400000C9400000C9452
:10002E008F000C9400000C9400000C9400000C94B3
:10003E0000000C9482000C9400000C9400000C94B0
:10004E0000000C9400000C9400000C9400000C9422
:10005E0000000C9400000C9400001027E8036400CC
:10006E000A000100001000011000010046726571C7
:10007E0075656E63793A01002D4E414E00494E462C
:10008E00000080C00A000A037A00010015038400F4
:10009E000200190390000000F894EE27EFBBF1E088
:1000AE00F5BFE5BF8DE0A2E0BB27ED938A95E9F79A
:1000BE0080E098E0A0E0B1E0ED930197E9F7E2E986
:1000CE00F0E085919591009761F0A591B59105901D
:1000DE001590BF01F00105900D920197E1F7FB011C
:1000EE00F0CFE0E0EEBBEFEFEDBFE8E0EEBFC0E03B
:1000FE00D3E00C94D400EA93FA93EFB7EA93E1E0DD
:10010E00F0E03E0E4F1EE991EFBFF991E99118957F
:10011E000A921A92FA926A937A938A939A93AA936C
:10012E00BA93EA93FA93EFB7EA93B32DA0E0E6B54C
:10013E00F0E0EA0FFB1F5E2E6F2E33244424E0E026
:10014E00E6BDE52DF62DAAE0B0E097D17E2E8F2EDE
:10015E0006D1E0E0EA93A0E0F0D0AAE0B3E01DD132
:10016E00E0E0EA93A1E0E9D0E72DF82D66277727A6
:10017E00B4D1A0E0B3E06AD0A0E0B3E00ED1E99133
:10018E00EFBFF991E991B991A991999189917991DD
:10019E006991F990199009901895E0E8E093610043
:1001AE00E0E0E0936100E4B9E5B9E7B9E8B9EAB98E
:1001BE00EBB9E4BDE7E0E5BDE0E0E6BDE7BDE8BDD7
:1001CE00E0938000ECE0E0938100E0E0E0938500B6
:1001DE00E0938400E0938700E0938600E8E1E093EB
:1001EE008900E9E6E0938800E0E0E0938B00E0937D
:1001FE008A00E093B600E093B000E093B100E09384
:10020E00B200E093B300E093B400E1E0E0936E003F
:10021E00E2E0E0936F00E0E0E0937000E0936900AD
:10022E00EDBBE0936800E093C100E0E8E0BFE0E0E2
:10023E00E0937B00E0937F00E0937A00ECBDE093C7
:10024E00BC00A0E1B9D07894FFCFFFCF249703D1A3
:10025E009D01E0E0FAEC6AE97BE3DAD000E0AB85E1
:10026E00AA235AF4E885F9856A857B85FED0D5D018
:10027E00D9012F5F3F4FEDE2EC93D4D006D11E2F64
:10028E00103059F4003049F4D6D0A130E0E0BE076A
:10029E00E0E08E07E0E09E0751F43F932F932F5F2F
:1002AE003F4FE12FE05DAF91BF91EC9301E0BAD0EB
:1002BE0010D1B3D0C0D0EAE0F0E060E070E0E5D05D
:1002CE00A7D0EC81FD816E817F810CD1B1F6D90171
:1002DE00E0E0EC93C5D02C9608951A931A2F14FFD4
:1002EE0002C0449A01C0449815FF02C0459A01C04D
:1002FE00459816FF02C0299A01C0299817FF02C01F
:10030E002A9A01C02A988BE18A95F1F7429A8BE1DD
:10031E008A95F1F742988BE18A95F1F777C0AA9307
:10032E00A881DBDFE881E295E883A881D6DF88EC3F
:10033E0090E00197F1F7219608951A930A931A2FD8
:10034E000A81E12FF0E0E75EFC4FE081E00FAE2F77
:10035E00E6DFA02E912E1981088123960895A2E042
:10036E006FD0ACE0DCDFA1E06BD0E0E09E2EAE2ED5
:10037E0008951A931A2F1A3011F0AC1440F0E0E0E1
:10038E00EA939394A92DD9DF1A3009F43FC0A394B0
:10039E00409AA12FC4DF409839C05DD09D01D9018C
:1003AE002F5F3F4FEC911E2FE03019F0A12FE1DFB0
:1003BE00F6CF56D0249608951A931A2F3C9A3D9A4A
:1003CE00219A229A3A9A389A399A429840984198A4
:1003DE00C12EE12FE058E0931B03E12FE054E09390
:1003EE001C03A4E1B0E082D02FD02ED02DD0A0E2FD
:1003FE0074DF80E991E00197F1F7A8E290DFA4E0C5
:10040E008EDFA5E88CDFA6E08ADFA9DF19910895BB
:10041E00EC83FD836E837F830895E887F9876A876F
:10042E007B870895EC81FD816E817F81A885B985DA
:10043E008A859B850895AC81BD818E819F810895AB
:10044E006EDFA3E0B0E052C0A0E347DF80E991E0A9
:10045E000197F1F708953A932A931A930A93089500
:10046E003B812A81198108810895F09560957095D8
:10047E00E195FF4F6F4F7F4F0895FA9FF02DEB9F41
:10048E00F00DEA9FE02DF10D08953F934F935F938A
:10049E0000241124A00130E2AA0FBB1F881F991F50
:1004AE00001C111C441F551F0E1A1F0A460B570B1A
:1004BE0028F40E0E1F1E461F571F01C0A1603A954D
:1004CE0059F7FD01BC01D001CA015F914F913F91D7
:1004DE000895DBDFFD01BC0108957A936A93FA93C8
:1004EE00EA9308953097604070400895109639F061
:1004FE00A89580EA9FE00197F1F71197C9F7089543
:00000001FF
